{
  "_format": "hh-sol-artifact-1",
  "contractName": "ComplianceRegistry",
  "sourceName": "contracts/ComplianceRegistry.sol",
  "abi": [
    {
      "inputs": [
        {
          "internalType": "address",
          "name": "admin",
          "type": "address"
        }
      ],
      "stateMutability": "nonpayable",
      "type": "constructor"
    },
    {
      "inputs": [],
      "name": "AccessControlBadConfirmation",
      "type": "error"
    },
    {
      "inputs": [
        {
          "internalType": "address",
          "name": "account",
          "type": "address"
        },
        {
          "internalType": "bytes32",
          "name": "neededRole",
          "type": "bytes32"
        }
      ],
      "name": "AccessControlUnauthorizedAccount",
      "type": "error"
    },
    {
      "anonymous": false,
      "inputs": [
        {
          "indexed": true,
          "internalType": "uint256",
          "name": "loanId",
          "type": "uint256"
        },
        {
          "indexed": true,
          "internalType": "address",
          "name": "scholar",
          "type": "address"
        },
        {
          "indexed": false,
          "internalType": "bool",
          "name": "approved",
          "type": "bool"
        },
        {
          "indexed": false,
          "internalType": "string",
          "name": "noteCID",
          "type": "string"
        }
      ],
      "name": "LoanVerified",
      "type": "event"
    },
    {
      "anonymous": false,
      "inputs": [
        {
          "indexed": true,
          "internalType": "bytes32",
          "name": "role",
          "type": "bytes32"
        },
        {
          "indexed": true,
          "internalType": "bytes32",
          "name": "previousAdminRole",
          "type": "bytes32"
        },
        {
          "indexed": true,
          "internalType": "bytes32",
          "name": "newAdminRole",
          "type": "bytes32"
        }
      ],
      "name": "RoleAdminChanged",
      "type": "event"
    },
    {
      "anonymous": false,
      "inputs": [
        {
          "indexed": true,
          "internalType": "bytes32",
          "name": "role",
          "type": "bytes32"
        },
        {
          "indexed": true,
          "internalType": "address",
          "name": "account",
          "type": "address"
        },
        {
          "indexed": true,
          "internalType": "address",
          "name": "sender",
          "type": "address"
        }
      ],
      "name": "RoleGranted",
      "type": "event"
    },
    {
      "anonymous": false,
      "inputs": [
        {
          "indexed": true,
          "internalType": "bytes32",
          "name": "role",
          "type": "bytes32"
        },
        {
          "indexed": true,
          "internalType": "address",
          "name": "account",
          "type": "address"
        },
        {
          "indexed": true,
          "internalType": "address",
          "name": "sender",
          "type": "address"
        }
      ],
      "name": "RoleRevoked",
      "type": "event"
    },
    {
      "anonymous": false,
      "inputs": [
        {
          "indexed": true,
          "internalType": "uint32",
          "name": "sector",
          "type": "uint32"
        },
        {
          "indexed": false,
          "internalType": "bool",
          "name": "allowed",
          "type": "bool"
        }
      ],
      "name": "SectorUpdated",
      "type": "event"
    },
    {
      "anonymous": false,
      "inputs": [
        {
          "indexed": true,
          "internalType": "address",
          "name": "vendor",
          "type": "address"
        },
        {
          "indexed": false,
          "internalType": "bool",
          "name": "allowed",
          "type": "bool"
        }
      ],
      "name": "VendorUpdated",
      "type": "event"
    },
    {
      "inputs": [],
      "name": "DEFAULT_ADMIN_ROLE",
      "outputs": [
        {
          "internalType": "bytes32",
          "name": "",
          "type": "bytes32"
        }
      ],
      "stateMutability": "view",
      "type": "function"
    },
    {
      "inputs": [],
      "name": "SCHOLAR_ROLE",
      "outputs": [
        {
          "internalType": "bytes32",
          "name": "",
          "type": "bytes32"
        }
      ],
      "stateMutability": "view",
      "type": "function"
    },
    {
      "inputs": [
        {
          "internalType": "bytes32",
          "name": "role",
          "type": "bytes32"
        }
      ],
      "name": "getRoleAdmin",
      "outputs": [
        {
          "internalType": "bytes32",
          "name": "",
          "type": "bytes32"
        }
      ],
      "stateMutability": "view",
      "type": "function"
    },
    {
      "inputs": [
        {
          "internalType": "bytes32",
          "name": "role",
          "type": "bytes32"
        },
        {
          "internalType": "address",
          "name": "account",
          "type": "address"
        }
      ],
      "name": "grantRole",
      "outputs": [],
      "stateMutability": "nonpayable",
      "type": "function"
    },
    {
      "inputs": [
        {
          "internalType": "bytes32",
          "name": "role",
          "type": "bytes32"
        },
        {
          "internalType": "address",
          "name": "account",
          "type": "address"
        }
      ],
      "name": "hasRole",
      "outputs": [
        {
          "internalType": "bool",
          "name": "",
          "type": "bool"
        }
      ],
      "stateMutability": "view",
      "type": "function"
    },
    {
      "inputs": [
        {
          "internalType": "uint256",
          "name": "",
          "type": "uint256"
        }
      ],
      "name": "loanApproved",
      "outputs": [
        {
          "internalType": "bool",
          "name": "",
          "type": "bool"
        }
      ],
      "stateMutability": "view",
      "type": "function"
    },
    {
      "inputs": [
        {
          "internalType": "bytes32",
          "name": "role",
          "type": "bytes32"
        },
        {
          "internalType": "address",
          "name": "callerConfirmation",
          "type": "address"
        }
      ],
      "name": "renounceRole",
      "outputs": [],
      "stateMutability": "nonpayable",
      "type": "function"
    },
    {
      "inputs": [
        {
          "internalType": "bytes32",
          "name": "role",
          "type": "bytes32"
        },
        {
          "internalType": "address",
          "name": "account",
          "type": "address"
        }
      ],
      "name": "revokeRole",
      "outputs": [],
      "stateMutability": "nonpayable",
      "type": "function"
    },
    {
      "inputs": [
        {
          "internalType": "uint256",
          "name": "",
          "type": "uint256"
        }
      ],
      "name": "scholarNoteCID",
      "outputs": [
        {
          "internalType": "string",
          "name": "",
          "type": "string"
        }
      ],
      "stateMutability": "view",
      "type": "function"
    },
    {
      "inputs": [
        {
          "internalType": "uint32",
          "name": "",
          "type": "uint32"
        }
      ],
      "name": "sectorAllowed",
      "outputs": [
        {
          "internalType": "bool",
          "name": "",
          "type": "bool"
        }
      ],
      "stateMutability": "view",
      "type": "function"
    },
    {
      "inputs": [
        {
          "internalType": "uint32",
          "name": "code",
          "type": "uint32"
        },
        {
          "internalType": "bool",
          "name": "ok",
          "type": "bool"
        }
      ],
      "name": "setSector",
      "outputs": [],
      "stateMutability": "nonpayable",
      "type": "function"
    },
    {
      "inputs": [
        {
          "internalType": "address",
          "name": "vendor",
          "type": "address"
        },
        {
          "internalType": "bool",
          "name": "ok",
          "type": "bool"
        }
      ],
      "name": "setVendor",
      "outputs": [],
      "stateMutability": "nonpayable",
      "type": "function"
    },
    {
      "inputs": [
        {
          "internalType": "bytes4",
          "name": "interfaceId",
          "type": "bytes4"
        }
      ],
      "name": "supportsInterface",
      "outputs": [
        {
          "internalType": "bool",
          "name": "",
          "type": "bool"
        }
      ],
      "stateMutability": "view",
      "type": "function"
    },
    {
      "inputs": [
        {
          "internalType": "address",
          "name": "",
          "type": "address"
        }
      ],
      "name": "vendorAllowed",
      "outputs": [
        {
          "internalType": "bool",
          "name": "",
          "type": "bool"
        }
      ],
      "stateMutability": "view",
      "type": "function"
    },
    {
      "inputs": [
        {
          "internalType": "uint256",
          "name": "loanId",
          "type": "uint256"
        },
        {
          "internalType": "bool",
          "name": "approved",
          "type": "bool"
        },
        {
          "internalType": "string",
          "name": "noteCID",
          "type": "string"
        }
      ],
      "name": "verifyLoan",
      "outputs": [],
      "stateMutability": "nonpayable",
      "type": "function"
    }
  ],
  "bytecode": "0x60806040523480156200001157600080fd5b506040516200169f3803806200169f833981810160405281019062000037919062000266565b6200004c6000801b826200008760201b60201c565b506200007f7f1933ed5067136d70a59e27fe32c1ac4b21188c6c91e749021fe52beca6033da1826200008760201b60201c565b505062000298565b60006200009b83836200018a60201b60201c565b6200017f57600160008085815260200190815260200160002060000160008473ffffffffffffffffffffffffffffffffffffffff1673ffffffffffffffffffffffffffffffffffffffff16815260200190815260200160002060006101000a81548160ff0219169083151502179055506200011b620001f460201b60201c565b73ffffffffffffffffffffffffffffffffffffffff168273ffffffffffffffffffffffffffffffffffffffff16847f2f8788117e7eff1d82e926ec794901d17c78024a50270940304540a733656f0d60405160405180910390a46001905062000184565b600090505b92915050565b600080600084815260200190815260200160002060000160008373ffffffffffffffffffffffffffffffffffffffff1673ffffffffffffffffffffffffffffffffffffffff16815260200190815260200160002060009054906101000a900460ff16905092915050565b600033905090565b600080fd5b600073ffffffffffffffffffffffffffffffffffffffff82169050919050565b60006200022e8262000201565b9050919050565b620002408162000221565b81146200024c57600080fd5b50565b600081519050620002608162000235565b92915050565b6000602082840312156200027f576200027e620001fc565b5b60006200028f848285016200024f565b91505092915050565b6113f780620002a86000396000f3fe608060405234801561001057600080fd5b50600436106100f55760003560e01c8063a217fddf11610097578063d57e2aeb11610066578063d57e2aeb14610296578063ddcf43b8146102c6578063e599624a146102e2578063e6960c68146102fe576100f5565b8063a217fddf146101fc578063abd9cc1f1461021a578063ce485bd11461024a578063d547741f1461027a576100f5565b806336568abe116100d357806336568abe1461017657806374604260146101925780637dc11a21146101ae57806391d14854146101cc576100f5565b806301ffc9a7146100fa578063248a9ca31461012a5780632f2ff15d1461015a575b600080fd5b610114600480360381019061010f9190610b47565b61032e565b6040516101219190610b8f565b60405180910390f35b610144600480360381019061013f9190610be0565b6103a8565b6040516101519190610c1c565b60405180910390f35b610174600480360381019061016f9190610c95565b6103c7565b005b610190600480360381019061018b9190610c95565b6103e9565b005b6101ac60048036038101906101a79190610d01565b610464565b005b6101b661051b565b6040516101c39190610c1c565b60405180910390f35b6101e660048036038101906101e19190610c95565b61053f565b6040516101f39190610b8f565b60405180910390f35b6102046105a9565b6040516102119190610c1c565b60405180910390f35b610234600480360381019061022f9190610d7d565b6105b0565b6040516102419190610b8f565b60405180910390f35b610264600480360381019061025f9190610de0565b6105d0565b6040516102719190610b8f565b60405180910390f35b610294600480360381019061028f9190610c95565b6105f0565b005b6102b060048036038101906102ab9190610de0565b610612565b6040516102bd9190610e9d565b60405180910390f35b6102e060048036038101906102db9190610ebf565b6106b2565b005b6102fc60048036038101906102f79190610f64565b610739565b005b61031860048036038101906103139190610fd8565b61080b565b6040516103259190610b8f565b60405180910390f35b60007f7965db0b000000000000000000000000000000000000000000000000000000007bffffffffffffffffffffffffffffffffffffffffffffffffffffffff1916827bffffffffffffffffffffffffffffffffffffffffffffffffffffffff191614806103a157506103a08261082b565b5b9050919050565b6000806000838152602001908152602001600020600101549050919050565b6103d0826103a8565b6103d981610895565b6103e383836108a9565b50505050565b6103f161099a565b73ffffffffffffffffffffffffffffffffffffffff168173ffffffffffffffffffffffffffffffffffffffff1614610455576040517f6697b23200000000000000000000000000000000000000000000000000000000815260040160405180910390fd5b61045f82826109a2565b505050565b6000801b61047181610895565b81600260008573ffffffffffffffffffffffffffffffffffffffff1673ffffffffffffffffffffffffffffffffffffffff16815260200190815260200160002060006101000a81548160ff0219169083151502179055508273ffffffffffffffffffffffffffffffffffffffff167f78731f6fcc5c51d8eba77a93bc9db049d9fb47e6de291d1e521e4b3a55580ccd8360405161050e9190610b8f565b60405180910390a2505050565b7f1933ed5067136d70a59e27fe32c1ac4b21188c6c91e749021fe52beca6033da181565b600080600084815260200190815260200160002060000160008373ffffffffffffffffffffffffffffffffffffffff1673ffffffffffffffffffffffffffffffffffffffff16815260200190815260200160002060009054906101000a900460ff16905092915050565b6000801b81565b60016020528060005260406000206000915054906101000a900460ff1681565b60036020528060005260406000206000915054906101000a900460ff1681565b6105f9826103a8565b61060281610895565b61060c83836109a2565b50505050565b6004602052806000526040600020600091509050805461063190611034565b80601f016020809104026020016040519081016040528092919081815260200182805461065d90611034565b80156106aa5780601f1061067f576101008083540402835291602001916106aa565b820191906000526020600020905b81548152906001019060200180831161068d57829003601f168201915b505050505081565b6000801b6106bf81610895565b81600160008563ffffffff1663ffffffff16815260200190815260200160002060006101000a81548160ff0219169083151502179055508263ffffffff167f16ddae8b302cd35be663b8a348cdbb511f91cc8a7f74fc637d961458449308e18360405161072c9190610b8f565b60405180910390a2505050565b7f1933ed5067136d70a59e27fe32c1ac4b21188c6c91e749021fe52beca6033da161076381610895565b836003600087815260200190815260200160002060006101000a81548160ff02191690831515021790555082826004600088815260200190815260200160002091826107b092919061124b565b503373ffffffffffffffffffffffffffffffffffffffff16857f0fa05e073104b21d449b41558265ab3054dad4d99d5c04036b95a49d6cf715878686866040516107fc93929190611357565b60405180910390a35050505050565b60026020528060005260406000206000915054906101000a900460ff1681565b60007f01ffc9a7000000000000000000000000000000000000000000000000000000007bffffffffffffffffffffffffffffffffffffffffffffffffffffffff1916827bffffffffffffffffffffffffffffffffffffffffffffffffffffffff1916149050919050565b6108a6816108a161099a565b610a94565b50565b60006108b5838361053f565b61098f57600160008085815260200190815260200160002060000160008473ffffffffffffffffffffffffffffffffffffffff1673ffffffffffffffffffffffffffffffffffffffff16815260200190815260200160002060006101000a81548160ff02191690831515021790555061092c61099a565b73ffffffffffffffffffffffffffffffffffffffff168273ffffffffffffffffffffffffffffffffffffffff16847f2f8788117e7eff1d82e926ec794901d17c78024a50270940304540a733656f0d60405160405180910390a460019050610994565b600090505b92915050565b600033905090565b60006109ae838361053f565b15610a8957600080600085815260200190815260200160002060000160008473ffffffffffffffffffffffffffffffffffffffff1673ffffffffffffffffffffffffffffffffffffffff16815260200190815260200160002060006101000a81548160ff021916908315150217905550610a2661099a565b73ffffffffffffffffffffffffffffffffffffffff168273ffffffffffffffffffffffffffffffffffffffff16847ff6391f5c32d9c69d2a47ea670b442974b53935d1edc7fd64eb21e047a839171b60405160405180910390a460019050610a8e565b600090505b92915050565b610a9e828261053f565b610ae15780826040517fe2517d3f000000000000000000000000000000000000000000000000000000008152600401610ad8929190611398565b60405180910390fd5b5050565b600080fd5b600080fd5b60007fffffffff0000000000000000000000000000000000000000000000000000000082169050919050565b610b2481610aef565b8114610b2f57600080fd5b50565b600081359050610b4181610b1b565b92915050565b600060208284031215610b5d57610b5c610ae5565b5b6000610b6b84828501610b32565b91505092915050565b60008115159050919050565b610b8981610b74565b82525050565b6000602082019050610ba46000830184610b80565b92915050565b6000819050919050565b610bbd81610baa565b8114610bc857600080fd5b50565b600081359050610bda81610bb4565b92915050565b600060208284031215610bf657610bf5610ae5565b5b6000610c0484828501610bcb565b91505092915050565b610c1681610baa565b82525050565b6000602082019050610c316000830184610c0d565b92915050565b600073ffffffffffffffffffffffffffffffffffffffff82169050919050565b6000610c6282610c37565b9050919050565b610c7281610c57565b8114610c7d57600080fd5b50565b600081359050610c8f81610c69565b92915050565b60008060408385031215610cac57610cab610ae5565b5b6000610cba85828601610bcb565b9250506020610ccb85828601610c80565b9150509250929050565b610cde81610b74565b8114610ce957600080fd5b50565b600081359050610cfb81610cd5565b92915050565b60008060408385031215610d1857610d17610ae5565b5b6000610d2685828601610c80565b9250506020610d3785828601610cec565b9150509250929050565b600063ffffffff82169050919050565b610d5a81610d41565b8114610d6557600080fd5b50565b600081359050610d7781610d51565b92915050565b600060208284031215610d9357610d92610ae5565b5b6000610da184828501610d68565b91505092915050565b6000819050919050565b610dbd81610daa565b8114610dc857600080fd5b50565b600081359050610dda81610db4565b92915050565b600060208284031215610df657610df5610ae5565b5b6000610e0484828501610dcb565b91505092915050565b600081519050919050565b600082825260208201905092915050565b60005b83811015610e47578082015181840152602081019050610e2c565b60008484015250505050565b6000601f19601f8301169050919050565b6000610e6f82610e0d565b610e798185610e18565b9350610e89818560208601610e29565b610e9281610e53565b840191505092915050565b60006020820190508181036000830152610eb78184610e64565b905092915050565b60008060408385031215610ed657610ed5610ae5565b5b6000610ee485828601610d68565b9250506020610ef585828601610cec565b9150509250929050565b600080fd5b600080fd5b600080fd5b60008083601f840112610f2457610f23610eff565b5b8235905067ffffffffffffffff811115610f4157610f40610f04565b5b602083019150836001820283011115610f5d57610f5c610f09565b5b9250929050565b60008060008060608587031215610f7e57610f7d610ae5565b5b6000610f8c87828801610dcb565b9450506020610f9d87828801610cec565b935050604085013567ffffffffffffffff811115610fbe57610fbd610aea565b5b610fca87828801610f0e565b925092505092959194509250565b600060208284031215610fee57610fed610ae5565b5b6000610ffc84828501610c80565b91505092915050565b7f4e487b7100000000000000000000000000000000000000000000000000000000600052602260045260246000fd5b6000600282049050600182168061104c57607f821691505b60208210810361105f5761105e611005565b5b50919050565b600082905092915050565b7f4e487b7100000000000000000000000000000000000000000000000000000000600052604160045260246000fd5b60008190508160005260206000209050919050565b60006020601f8301049050919050565b600082821b905092915050565b6000600883026111017fffffffffffffffffffffffffffffffffffffffffffffffffffffffffffffffff826110c4565b61110b86836110c4565b95508019841693508086168417925050509392505050565b6000819050919050565b600061114861114361113e84610daa565b611123565b610daa565b9050919050565b6000819050919050565b6111628361112d565b61117661116e8261114f565b8484546110d1565b825550505050565b600090565b61118b61117e565b611196818484611159565b505050565b5b818110156111ba576111af600082611183565b60018101905061119c565b5050565b601f8211156111ff576111d08161109f565b6111d9846110b4565b810160208510156111e8578190505b6111fc6111f4856110b4565b83018261119b565b50505b505050565b600082821c905092915050565b600061122260001984600802611204565b1980831691505092915050565b600061123b8383611211565b9150826002028217905092915050565b6112558383611065565b67ffffffffffffffff81111561126e5761126d611070565b5b6112788254611034565b6112838282856111be565b6000601f8311600181146112b257600084156112a0578287013590505b6112aa858261122f565b865550611312565b601f1984166112c08661109f565b60005b828110156112e8578489013582556001820191506020850194506020810190506112c3565b868310156113055784890135611301601f891682611211565b8355505b6001600288020188555050505b50505050505050565b82818337600083830152505050565b60006113368385610e18565b935061134383858461131b565b61134c83610e53565b840190509392505050565b600060408201905061136c6000830186610b80565b818103602083015261137f81848661132a565b9050949350505050565b61139281610c57565b82525050565b60006040820190506113ad6000830185611389565b6113ba6020830184610c0d565b939250505056fea26469706673582212203e0370f8f6678f4e39e90eb8acaf65489aa04670757d8bda18ff759fa07e3a6e64736f6c63430008140033",
  "linkReferences": {},
  "deployedLinkReferences": {}
}