{
  "_format": "hh-sol-artifact-1",
  "contractName": "Loan",
  "sourceName": "contracts/Loan.sol",
  "abi": [
    {
      "inputs": [
        {
          "internalType": "uint256",
          "name": "_loanId",
          "type": "uint256"
        },
        {
          "internalType": "address",
          "name": "_borrower",
          "type": "address"
        },
        {
          "internalType": "address",
          "name": "_stable",
          "type": "address"
        },
        {
          "internalType": "uint256",
          "name": "_principal",
          "type": "uint256"
        },
        {
          "internalType": "uint256",
          "name": "_minFund",
          "type": "uint256"
        },
        {
          "internalType": "uint256",
          "name": "_tenorDays",
          "type": "uint256"
        },
        {
          "internalType": "uint16",
          "name": "_profitShareBps",
          "type": "uint16"
        },
        {
          "internalType": "uint16",
          "name": "_markupBps",
          "type": "uint16"
        },
        {
          "internalType": "uint32",
          "name": "_sectorCode",
          "type": "uint32"
        },
        {
          "internalType": "uint8",
          "name": "_loanType",
          "type": "uint8"
        },
        {
          "internalType": "address",
          "name": "_compliance",
          "type": "address"
        }
      ],
      "stateMutability": "nonpayable",
      "type": "constructor"
    },
    {
      "anonymous": false,
      "inputs": [
        {
          "indexed": false,
          "internalType": "uint256",
          "name": "at",
          "type": "uint256"
        }
      ],
      "name": "Activated",
      "type": "event"
    },
    {
      "anonymous": false,
      "inputs": [
        {
          "indexed": true,
          "internalType": "address",
          "name": "investor",
          "type": "address"
        },
        {
          "indexed": false,
          "internalType": "uint256",
          "name": "amount",
          "type": "uint256"
        },
        {
          "indexed": false,
          "internalType": "uint256",
          "name": "fundedTotal",
          "type": "uint256"
        }
      ],
      "name": "Funded",
      "type": "event"
    },
    {
      "anonymous": false,
      "inputs": [],
      "name": "LoanCancelled",
      "type": "event"
    },
    {
      "anonymous": false,
      "inputs": [
        {
          "indexed": true,
          "internalType": "address",
          "name": "payee",
          "type": "address"
        },
        {
          "indexed": false,
          "internalType": "uint256",
          "name": "amount",
          "type": "uint256"
        }
      ],
      "name": "PaymentDeposited",
      "type": "event"
    },
    {
      "anonymous": false,
      "inputs": [
        {
          "indexed": true,
          "internalType": "address",
          "name": "payee",
          "type": "address"
        },
        {
          "indexed": false,
          "internalType": "uint256",
          "name": "amount",
          "type": "uint256"
        }
      ],
      "name": "PaymentWithdrawn",
      "type": "event"
    },
    {
      "anonymous": false,
      "inputs": [
        {
          "indexed": true,
          "internalType": "address",
          "name": "investor",
          "type": "address"
        },
        {
          "indexed": false,
          "internalType": "uint256",
          "name": "amount",
          "type": "uint256"
        }
      ],
      "name": "Refund",
      "type": "event"
    },
    {
      "anonymous": false,
      "inputs": [
        {
          "indexed": true,
          "internalType": "address",
          "name": "payer",
          "type": "address"
        },
        {
          "indexed": false,
          "internalType": "uint256",
          "name": "amount",
          "type": "uint256"
        }
      ],
      "name": "RepaymentMade",
      "type": "event"
    },
    {
      "anonymous": false,
      "inputs": [
        {
          "indexed": true,
          "internalType": "address",
          "name": "to",
          "type": "address"
        },
        {
          "indexed": false,
          "internalType": "uint256",
          "name": "amount",
          "type": "uint256"
        }
      ],
      "name": "WithdrawableAdded",
      "type": "event"
    },
    {
      "inputs": [],
      "name": "activate",
      "outputs": [],
      "stateMutability": "nonpayable",
      "type": "function"
    },
    {
      "inputs": [],
      "name": "activatedAt",
      "outputs": [
        {
          "internalType": "uint256",
          "name": "",
          "type": "uint256"
        }
      ],
      "stateMutability": "view",
      "type": "function"
    },
    {
      "inputs": [],
      "name": "borrower",
      "outputs": [
        {
          "internalType": "address",
          "name": "",
          "type": "address"
        }
      ],
      "stateMutability": "view",
      "type": "function"
    },
    {
      "inputs": [],
      "name": "cancelAndRefund",
      "outputs": [],
      "stateMutability": "nonpayable",
      "type": "function"
    },
    {
      "inputs": [],
      "name": "compliance",
      "outputs": [
        {
          "internalType": "address",
          "name": "",
          "type": "address"
        }
      ],
      "stateMutability": "view",
      "type": "function"
    },
    {
      "inputs": [
        {
          "internalType": "address",
          "name": "who",
          "type": "address"
        }
      ],
      "name": "contributionOf",
      "outputs": [
        {
          "internalType": "uint256",
          "name": "",
          "type": "uint256"
        }
      ],
      "stateMutability": "view",
      "type": "function"
    },
    {
      "inputs": [
        {
          "internalType": "address",
          "name": "",
          "type": "address"
        }
      ],
      "name": "contributions",
      "outputs": [
        {
          "internalType": "uint256",
          "name": "",
          "type": "uint256"
        }
      ],
      "stateMutability": "view",
      "type": "function"
    },
    {
      "inputs": [
        {
          "internalType": "uint256",
          "name": "amount",
          "type": "uint256"
        }
      ],
      "name": "fund",
      "outputs": [],
      "stateMutability": "nonpayable",
      "type": "function"
    },
    {
      "inputs": [],
      "name": "funded",
      "outputs": [
        {
          "internalType": "uint256",
          "name": "",
          "type": "uint256"
        }
      ],
      "stateMutability": "view",
      "type": "function"
    },
    {
      "inputs": [],
      "name": "getInvestors",
      "outputs": [
        {
          "internalType": "address[]",
          "name": "",
          "type": "address[]"
        }
      ],
      "stateMutability": "view",
      "type": "function"
    },
    {
      "inputs": [
        {
          "internalType": "uint256",
          "name": "",
          "type": "uint256"
        }
      ],
      "name": "investors",
      "outputs": [
        {
          "internalType": "address",
          "name": "",
          "type": "address"
        }
      ],
      "stateMutability": "view",
      "type": "function"
    },
    {
      "inputs": [],
      "name": "loanId",
      "outputs": [
        {
          "internalType": "uint256",
          "name": "",
          "type": "uint256"
        }
      ],
      "stateMutability": "view",
      "type": "function"
    },
    {
      "inputs": [],
      "name": "loanType",
      "outputs": [
        {
          "internalType": "enum Loan.LoanType",
          "name": "",
          "type": "uint8"
        }
      ],
      "stateMutability": "view",
      "type": "function"
    },
    {
      "inputs": [],
      "name": "markupBps",
      "outputs": [
        {
          "internalType": "uint16",
          "name": "",
          "type": "uint16"
        }
      ],
      "stateMutability": "view",
      "type": "function"
    },
    {
      "inputs": [],
      "name": "minFund",
      "outputs": [
        {
          "internalType": "uint256",
          "name": "",
          "type": "uint256"
        }
      ],
      "stateMutability": "view",
      "type": "function"
    },
    {
      "inputs": [
        {
          "internalType": "address",
          "name": "payee",
          "type": "address"
        }
      ],
      "name": "payments",
      "outputs": [
        {
          "internalType": "uint256",
          "name": "",
          "type": "uint256"
        }
      ],
      "stateMutability": "view",
      "type": "function"
    },
    {
      "inputs": [],
      "name": "principal",
      "outputs": [
        {
          "internalType": "uint256",
          "name": "",
          "type": "uint256"
        }
      ],
      "stateMutability": "view",
      "type": "function"
    },
    {
      "inputs": [],
      "name": "profitShareBps",
      "outputs": [
        {
          "internalType": "uint16",
          "name": "",
          "type": "uint16"
        }
      ],
      "stateMutability": "view",
      "type": "function"
    },
    {
      "inputs": [],
      "name": "repaid",
      "outputs": [
        {
          "internalType": "uint256",
          "name": "",
          "type": "uint256"
        }
      ],
      "stateMutability": "view",
      "type": "function"
    },
    {
      "inputs": [
        {
          "internalType": "uint256",
          "name": "amount",
          "type": "uint256"
        }
      ],
      "name": "repay",
      "outputs": [],
      "stateMutability": "nonpayable",
      "type": "function"
    },
    {
      "inputs": [],
      "name": "sectorCode",
      "outputs": [
        {
          "internalType": "uint32",
          "name": "",
          "type": "uint32"
        }
      ],
      "stateMutability": "view",
      "type": "function"
    },
    {
      "inputs": [],
      "name": "stable",
      "outputs": [
        {
          "internalType": "contract IERC20",
          "name": "",
          "type": "address"
        }
      ],
      "stateMutability": "view",
      "type": "function"
    },
    {
      "inputs": [],
      "name": "state",
      "outputs": [
        {
          "internalType": "enum Loan.LoanState",
          "name": "",
          "type": "uint8"
        }
      ],
      "stateMutability": "view",
      "type": "function"
    },
    {
      "inputs": [],
      "name": "tenorDays",
      "outputs": [
        {
          "internalType": "uint256",
          "name": "",
          "type": "uint256"
        }
      ],
      "stateMutability": "view",
      "type": "function"
    }
  ],
  "bytecode": "0x60806040523480156200001157600080fd5b506040516200279c3803806200279c833981810160405281019062000037919062000358565b8a60018190555089600260006101000a81548173ffffffffffffffffffffffffffffffffffffffff021916908373ffffffffffffffffffffffffffffffffffffffff16021790555088600360006101000a81548173ffffffffffffffffffffffffffffffffffffffff021916908373ffffffffffffffffffffffffffffffffffffffff16021790555087600481905550866005819055508560068190555084600760006101000a81548161ffff021916908361ffff16021790555083600760026101000a81548161ffff021916908361ffff16021790555082600760046101000a81548163ffffffff021916908363ffffffff1602179055508160ff16600181111562000149576200014862000465565b5b600760086101000a81548160ff0219169083600181111562000170576200016f62000465565b5b02179055506001600760096101000a81548160ff021916908360058111156200019e576200019d62000465565b5b021790555080600d60006101000a81548173ffffffffffffffffffffffffffffffffffffffff021916908373ffffffffffffffffffffffffffffffffffffffff160217905550505050505050505050505062000494565b600080fd5b6000819050919050565b6200020f81620001fa565b81146200021b57600080fd5b50565b6000815190506200022f8162000204565b92915050565b600073ffffffffffffffffffffffffffffffffffffffff82169050919050565b6000620002628262000235565b9050919050565b620002748162000255565b81146200028057600080fd5b50565b600081519050620002948162000269565b92915050565b600061ffff82169050919050565b620002b3816200029a565b8114620002bf57600080fd5b50565b600081519050620002d381620002a8565b92915050565b600063ffffffff82169050919050565b620002f481620002d9565b81146200030057600080fd5b50565b6000815190506200031481620002e9565b92915050565b600060ff82169050919050565b62000332816200031a565b81146200033e57600080fd5b50565b600081519050620003528162000327565b92915050565b60008060008060008060008060008060006101608c8e031215620003815762000380620001f5565b5b6000620003918e828f016200021e565b9b50506020620003a48e828f0162000283565b9a50506040620003b78e828f0162000283565b9950506060620003ca8e828f016200021e565b9850506080620003dd8e828f016200021e565b97505060a0620003f08e828f016200021e565b96505060c0620004038e828f01620002c2565b95505060e0620004168e828f01620002c2565b9450506101006200042a8e828f0162000303565b9350506101206200043e8e828f0162000341565b925050610140620004528e828f0162000283565b9150509295989b509295989b9093969950565b7f4e487b7100000000000000000000000000000000000000000000000000000000600052602160045260246000fd5b6122f880620004a46000396000f3fe608060405234801561001057600080fd5b50600436106101585760003560e01c80637df1f1b9116100c3578063ca1d209d1161007c578063ca1d209d14610373578063d7805ece1461038f578063d87eeab0146103bf578063e2982c21146103dd578063f3a504f21461040d578063fbb27dce1461042b57610158565b80637df1f1b9146102bf578063b2f5a54c146102dd578063ba5d3078146102fb578063c19d93fb14610319578063c3a15c1414610337578063c95669a51461035557610158565b80633feb5f2b116101155780633feb5f2b146101e757806342e94c90146102175780634639737d146102475780634d297f9514610265578063597be6d1146102835780636290865d146102a157610158565b806304419b761461015d5780630f15f4c01461017b5780631eda3eb8146101855780632009dc65146101a357806322be3de1146101ad578063371fd8e6146101cb575b600080fd5b610165610449565b60405161017291906118e0565b60405180910390f35b61018361045c565b005b61018d6108c6565b60405161019a9190611914565b60405180910390f35b6101ab6108cc565b005b6101b5610c16565b6040516101c291906119ae565b60405180910390f35b6101e560048036038101906101e091906119fa565b610c3c565b005b61020160048036038101906101fc91906119fa565b6110fc565b60405161020e9190611a48565b60405180910390f35b610231600480360381019061022c9190611a8f565b61113b565b60405161023e9190611914565b60405180910390f35b61024f611153565b60405161025c9190611ad9565b60405180910390f35b61026d611167565b60405161027a9190611b13565b60405180910390f35b61028b61117d565b6040516102989190611914565b60405180910390f35b6102a9611183565b6040516102b69190611a48565b60405180910390f35b6102c76111a9565b6040516102d49190611a48565b60405180910390f35b6102e56111cf565b6040516102f29190611bec565b60405180910390f35b61030361125d565b6040516103109190611914565b60405180910390f35b610321611263565b60405161032e9190611c56565b60405180910390f35b61033f611276565b60405161034c9190611914565b60405180910390f35b61035d61127c565b60405161036a9190611914565b60405180910390f35b61038d600480360381019061038891906119fa565b611282565b005b6103a960048036038101906103a49190611a8f565b6116a2565b6040516103b69190611914565b60405180910390f35b6103c76116eb565b6040516103d49190611ad9565b60405180910390f35b6103f760048036038101906103f29190611a8f565b6116ff565b6040516104049190611914565b60405180910390f35b610415611747565b6040516104229190611914565b60405180910390f35b61043361174d565b6040516104409190611914565b60405180910390f35b600760089054906101000a900460ff1681565b600180600581111561047157610470611869565b5b600760099054906101000a900460ff16600581111561049357610492611869565b5b146104d3576040517f08c379a00000000000000000000000000000000000000000000000000000000081526004016104ca90611cce565b60405180910390fd5b600260009054906101000a900473ffffffffffffffffffffffffffffffffffffffff1673ffffffffffffffffffffffffffffffffffffffff163373ffffffffffffffffffffffffffffffffffffffff1614610563576040517f08c379a000000000000000000000000000000000000000000000000000000000815260040161055a90611d3a565b60405180910390fd5b6000600d60009054906101000a900473ffffffffffffffffffffffffffffffffffffffff1690508073ffffffffffffffffffffffffffffffffffffffff1663ce485bd16001546040518263ffffffff1660e01b81526004016105c59190611914565b602060405180830381865afa1580156105e2573d6000803e3d6000fd5b505050506040513d601f19601f820116820180604052508101906106069190611d92565b610645576040517f08c379a000000000000000000000000000000000000000000000000000000000815260040161063c90611e0b565b60405180910390fd5b600554600854101561068c576040517f08c379a000000000000000000000000000000000000000000000000000000000815260040161068390611e77565b60405180910390fd5b6002600760096101000a81548160ff021916908360058111156106b2576106b1611869565b5b021790555042600981905550600060018111156106d2576106d1611869565b5b600760089054906101000a900460ff1660018111156106f4576106f3611869565b5b036107c357600360009054906101000a900473ffffffffffffffffffffffffffffffffffffffff1673ffffffffffffffffffffffffffffffffffffffff1663a9059cbb600260009054906101000a900473ffffffffffffffffffffffffffffffffffffffff166008546040518363ffffffff1660e01b815260040161077a929190611e97565b6020604051808303816000875af1158015610799573d6000803e3d6000fd5b505050506040513d601f19601f820116820180604052508101906107bd9190611d92565b50610889565b600360009054906101000a900473ffffffffffffffffffffffffffffffffffffffff1673ffffffffffffffffffffffffffffffffffffffff1663a9059cbb600260009054906101000a900473ffffffffffffffffffffffffffffffffffffffff166008546040518363ffffffff1660e01b8152600401610844929190611e97565b6020604051808303816000875af1158015610863573d6000803e3d6000fd5b505050506040513d601f19601f820116820180604052508101906108879190611d92565b505b7f3ec796be1be7d03bff3a62b9fa594a60e947c1809bced06d929f145308ae57ce6009546040516108ba9190611914565b60405180910390a15050565b60055481565b600160058111156108e0576108df611869565b5b600760099054906101000a900460ff16600581111561090257610901611869565b5b14610942576040517f08c379a000000000000000000000000000000000000000000000000000000000815260040161093990611f0c565b60405180910390fd5b600260009054906101000a900473ffffffffffffffffffffffffffffffffffffffff1673ffffffffffffffffffffffffffffffffffffffff163373ffffffffffffffffffffffffffffffffffffffff16146109d2576040517f08c379a00000000000000000000000000000000000000000000000000000000081526004016109c990611d3a565b60405180910390fd5b6005600760096101000a81548160ff021916908360058111156109f8576109f7611869565b5b021790555060005b600c80549050811015610be7576000600c8281548110610a2357610a22611f2c565b5b9060005260206000200160009054906101000a900473ffffffffffffffffffffffffffffffffffffffff1690506000600b60008373ffffffffffffffffffffffffffffffffffffffff1673ffffffffffffffffffffffffffffffffffffffff1681526020019081526020016000205490506000811115610bd2576000600b60008473ffffffffffffffffffffffffffffffffffffffff1673ffffffffffffffffffffffffffffffffffffffff16815260200190815260200160002081905550600360009054906101000a900473ffffffffffffffffffffffffffffffffffffffff1673ffffffffffffffffffffffffffffffffffffffff1663a9059cbb83836040518363ffffffff1660e01b8152600401610b3f929190611e97565b6020604051808303816000875af1158015610b5e573d6000803e3d6000fd5b505050506040513d601f19601f82011682018060405250810190610b829190611d92565b508173ffffffffffffffffffffffffffffffffffffffff167fbb28353e4598c3b9199101a66e0989549b659a59a54d2c27fbb183f1932c8e6d82604051610bc99190611914565b60405180910390a25b50508080610bdf90611f8a565b915050610a00565b507f0c5260e6f0e0d940b0de9d99c8b5b4e103d53585fabb34ab07d37694354e124e60405160405180910390a1565b600360009054906101000a900473ffffffffffffffffffffffffffffffffffffffff1681565b60026005811115610c5057610c4f611869565b5b600760099054906101000a900460ff166005811115610c7257610c71611869565b5b14610cb2576040517f08c379a0000000000000000000000000000000000000000000000000000000008152600401610ca99061201e565b60405180910390fd5b60008111610cf5576040517f08c379a0000000000000000000000000000000000000000000000000000000008152600401610cec9061208a565b60405180910390fd5b6000600360009054906101000a900473ffffffffffffffffffffffffffffffffffffffff1673ffffffffffffffffffffffffffffffffffffffff166370a08231306040518263ffffffff1660e01b8152600401610d529190611a48565b602060405180830381865afa158015610d6f573d6000803e3d6000fd5b505050506040513d601f19601f82011682018060405250810190610d9391906120bf565b9050600360009054906101000a900473ffffffffffffffffffffffffffffffffffffffff1673ffffffffffffffffffffffffffffffffffffffff166323b872dd3330856040518463ffffffff1660e01b8152600401610df4939291906120ec565b6020604051808303816000875af1158015610e13573d6000803e3d6000fd5b505050506040513d601f19601f82011682018060405250810190610e379190611d92565b506000600360009054906101000a900473ffffffffffffffffffffffffffffffffffffffff1673ffffffffffffffffffffffffffffffffffffffff166370a08231306040518263ffffffff1660e01b8152600401610e959190611a48565b602060405180830381865afa158015610eb2573d6000803e3d6000fd5b505050506040513d601f19601f82011682018060405250810190610ed691906120bf565b905060008282610ee69190612123565b905080600a6000828254610efa9190612157565b925050819055503373ffffffffffffffffffffffffffffffffffffffff167f0d96a71d7beb886409ddd8d9b22729113da8fa10ff15e7c9ed5f5ee79067a75082604051610f479190611914565b60405180910390a2600081905060008111156110855760005b600c80549050811015611083576000600c8281548110610f8357610f82611f2c565b5b9060005260206000200160009054906101000a900473ffffffffffffffffffffffffffffffffffffffff169050600060085484600b60008573ffffffffffffffffffffffffffffffffffffffff1673ffffffffffffffffffffffffffffffffffffffff16815260200190815260200160002054611000919061218b565b61100a91906121fc565b9050600081111561106e5761101f8282611753565b8173ffffffffffffffffffffffffffffffffffffffff167f42168dda46c03d4d904db69872048bc455e80f7f0ed317ffdcdd28b53545f56b826040516110659190611914565b60405180910390a25b5050808061107b90611f8a565b915050610f60565b505b612710600760029054906101000a900461ffff1661ffff166008546110aa919061218b565b6110b491906121fc565b6008546110c19190612157565b600a54106110f5576003600760096101000a81548160ff021916908360058111156110ef576110ee611869565b5b02179055505b5050505050565b600c818154811061110c57600080fd5b906000526020600020016000915054906101000a900473ffffffffffffffffffffffffffffffffffffffff1681565b600b6020528060005260406000206000915090505481565b600760009054906101000a900461ffff1681565b600760049054906101000a900463ffffffff1681565b60095481565b600d60009054906101000a900473ffffffffffffffffffffffffffffffffffffffff1681565b600260009054906101000a900473ffffffffffffffffffffffffffffffffffffffff1681565b6060600c80548060200260200160405190810160405280929190818152602001828054801561125357602002820191906000526020600020905b8160009054906101000a900473ffffffffffffffffffffffffffffffffffffffff1673ffffffffffffffffffffffffffffffffffffffff1681526020019060010190808311611209575b5050505050905090565b60045481565b600760099054906101000a900460ff1681565b60065481565b60015481565b600180600581111561129757611296611869565b5b600760099054906101000a900460ff1660058111156112b9576112b8611869565b5b146112f9576040517f08c379a00000000000000000000000000000000000000000000000000000000081526004016112f090611cce565b60405180910390fd5b6000821161133c576040517f08c379a00000000000000000000000000000000000000000000000000000000081526004016113339061208a565b60405180910390fd5b6000600360009054906101000a900473ffffffffffffffffffffffffffffffffffffffff1673ffffffffffffffffffffffffffffffffffffffff166370a08231306040518263ffffffff1660e01b81526004016113999190611a48565b602060405180830381865afa1580156113b6573d6000803e3d6000fd5b505050506040513d601f19601f820116820180604052508101906113da91906120bf565b9050600360009054906101000a900473ffffffffffffffffffffffffffffffffffffffff1673ffffffffffffffffffffffffffffffffffffffff166323b872dd3330866040518463ffffffff1660e01b815260040161143b939291906120ec565b6020604051808303816000875af115801561145a573d6000803e3d6000fd5b505050506040513d601f19601f8201168201806040525081019061147e9190611d92565b506000600360009054906101000a900473ffffffffffffffffffffffffffffffffffffffff1673ffffffffffffffffffffffffffffffffffffffff166370a08231306040518263ffffffff1660e01b81526004016114dc9190611a48565b602060405180830381865afa1580156114f9573d6000803e3d6000fd5b505050506040513d601f19601f8201168201806040525081019061151d91906120bf565b90506000828261152d9190612123565b90506000600b60003373ffffffffffffffffffffffffffffffffffffffff1673ffffffffffffffffffffffffffffffffffffffff16815260200190815260200160002054036115da57600c339080600181540180825580915050600190039060005260206000200160009091909190916101000a81548173ffffffffffffffffffffffffffffffffffffffff021916908373ffffffffffffffffffffffffffffffffffffffff1602179055505b80600b60003373ffffffffffffffffffffffffffffffffffffffff1673ffffffffffffffffffffffffffffffffffffffff16815260200190815260200160002060008282546116299190612157565b9250508190555080600860008282546116429190612157565b925050819055503373ffffffffffffffffffffffffffffffffffffffff167fcd909ec339185c4598a4096e174308fbdf136d117f230960f873a2f2e81f63af8260085460405161169392919061222d565b60405180910390a25050505050565b6000600b60008373ffffffffffffffffffffffffffffffffffffffff1673ffffffffffffffffffffffffffffffffffffffff168152602001908152602001600020549050919050565b600760029054906101000a900461ffff1681565b60008060008373ffffffffffffffffffffffffffffffffffffffff1673ffffffffffffffffffffffffffffffffffffffff168152602001908152602001600020549050919050565b60085481565b600a5481565b600073ffffffffffffffffffffffffffffffffffffffff168273ffffffffffffffffffffffffffffffffffffffff16036117c2576040517f08c379a00000000000000000000000000000000000000000000000000000000081526004016117b9906122a2565b60405180910390fd5b806000808473ffffffffffffffffffffffffffffffffffffffff1673ffffffffffffffffffffffffffffffffffffffff16815260200190815260200160002060008282546118109190612157565b925050819055508173ffffffffffffffffffffffffffffffffffffffff167fd348a8f42fae8db1d0030271b37ed6d94a5e292ff36db57b244ffe13f494dd458260405161185d9190611914565b60405180910390a25050565b7f4e487b7100000000000000000000000000000000000000000000000000000000600052602160045260246000fd5b600281106118a9576118a8611869565b5b50565b60008190506118ba82611898565b919050565b60006118ca826118ac565b9050919050565b6118da816118bf565b82525050565b60006020820190506118f560008301846118d1565b92915050565b6000819050919050565b61190e816118fb565b82525050565b60006020820190506119296000830184611905565b92915050565b600073ffffffffffffffffffffffffffffffffffffffff82169050919050565b6000819050919050565b600061197461196f61196a8461192f565b61194f565b61192f565b9050919050565b600061198682611959565b9050919050565b60006119988261197b565b9050919050565b6119a88161198d565b82525050565b60006020820190506119c3600083018461199f565b92915050565b600080fd5b6119d7816118fb565b81146119e257600080fd5b50565b6000813590506119f4816119ce565b92915050565b600060208284031215611a1057611a0f6119c9565b5b6000611a1e848285016119e5565b91505092915050565b6000611a328261192f565b9050919050565b611a4281611a27565b82525050565b6000602082019050611a5d6000830184611a39565b92915050565b611a6c81611a27565b8114611a7757600080fd5b50565b600081359050611a8981611a63565b92915050565b600060208284031215611aa557611aa46119c9565b5b6000611ab384828501611a7a565b91505092915050565b600061ffff82169050919050565b611ad381611abc565b82525050565b6000602082019050611aee6000830184611aca565b92915050565b600063ffffffff82169050919050565b611b0d81611af4565b82525050565b6000602082019050611b286000830184611b04565b92915050565b600081519050919050565b600082825260208201905092915050565b6000819050602082019050919050565b611b6381611a27565b82525050565b6000611b758383611b5a565b60208301905092915050565b6000602082019050919050565b6000611b9982611b2e565b611ba38185611b39565b9350611bae83611b4a565b8060005b83811015611bdf578151611bc68882611b69565b9750611bd183611b81565b925050600181019050611bb2565b5085935050505092915050565b60006020820190508181036000830152611c068184611b8e565b905092915050565b60068110611c1f57611c1e611869565b5b50565b6000819050611c3082611c0e565b919050565b6000611c4082611c22565b9050919050565b611c5081611c35565b82525050565b6000602082019050611c6b6000830184611c47565b92915050565b600082825260208201905092915050565b7f496e76616c696420737461746500000000000000000000000000000000000000600082015250565b6000611cb8600d83611c71565b9150611cc382611c82565b602082019050919050565b60006020820190508181036000830152611ce781611cab565b9050919050565b7f4f6e6c7920626f72726f77657200000000000000000000000000000000000000600082015250565b6000611d24600d83611c71565b9150611d2f82611cee565b602082019050919050565b60006020820190508181036000830152611d5381611d17565b9050919050565b60008115159050919050565b611d6f81611d5a565b8114611d7a57600080fd5b50565b600081519050611d8c81611d66565b92915050565b600060208284031215611da857611da76119c9565b5b6000611db684828501611d7d565b91505092915050565b7f4e6f7420617070726f766564206279207363686f6c6172000000000000000000600082015250565b6000611df5601783611c71565b9150611e0082611dbf565b602082019050919050565b60006020820190508181036000830152611e2481611de8565b9050919050565b7f4e6f7420656e6f7567682066756e647300000000000000000000000000000000600082015250565b6000611e61601083611c71565b9150611e6c82611e2b565b602082019050919050565b60006020820190508181036000830152611e9081611e54565b9050919050565b6000604082019050611eac6000830185611a39565b611eb96020830184611905565b9392505050565b7f4e6f742066756e6472616973696e670000000000000000000000000000000000600082015250565b6000611ef6600f83611c71565b9150611f0182611ec0565b602082019050919050565b60006020820190508181036000830152611f2581611ee9565b9050919050565b7f4e487b7100000000000000000000000000000000000000000000000000000000600052603260045260246000fd5b7f4e487b7100000000000000000000000000000000000000000000000000000000600052601160045260246000fd5b6000611f95826118fb565b91507fffffffffffffffffffffffffffffffffffffffffffffffffffffffffffffffff8203611fc757611fc6611f5b565b5b600182019050919050565b7f4e6f742061637469766500000000000000000000000000000000000000000000600082015250565b6000612008600a83611c71565b915061201382611fd2565b602082019050919050565b6000602082019050818103600083015261203781611ffb565b9050919050565b7f5a65726f00000000000000000000000000000000000000000000000000000000600082015250565b6000612074600483611c71565b915061207f8261203e565b602082019050919050565b600060208201905081810360008301526120a381612067565b9050919050565b6000815190506120b9816119ce565b92915050565b6000602082840312156120d5576120d46119c9565b5b60006120e3848285016120aa565b91505092915050565b60006060820190506121016000830186611a39565b61210e6020830185611a39565b61211b6040830184611905565b949350505050565b600061212e826118fb565b9150612139836118fb565b925082820390508181111561215157612150611f5b565b5b92915050565b6000612162826118fb565b915061216d836118fb565b925082820190508082111561218557612184611f5b565b5b92915050565b6000612196826118fb565b91506121a1836118fb565b92508282026121af816118fb565b915082820484148315176121c6576121c5611f5b565b5b5092915050565b7f4e487b7100000000000000000000000000000000000000000000000000000000600052601260045260246000fd5b6000612207826118fb565b9150612212836118fb565b925082612222576122216121cd565b5b828204905092915050565b60006040820190506122426000830185611905565b61224f6020830184611905565b9392505050565b7f496e76616c696420706179656500000000000000000000000000000000000000600082015250565b600061228c600d83611c71565b915061229782612256565b602082019050919050565b600060208201905081810360008301526122bb8161227f565b905091905056fea2646970667358221220f15bc28925c1c6b81f8c391a1f57cf48ddee40a0b7b0ca8b27feff71f6a55b0564736f6c63430008140033",
  "linkReferences": {},
  "deployedLinkReferences": {}
}